{
  "address": "0xDca0C1d495C722452d05faaa9305425415f1A403",
  "abi": [
    {
      "inputs": [
        {
          "internalType": "address",
          "name": "_peronio",
          "type": "address"
        }
      ],
      "stateMutability": "nonpayable",
      "type": "constructor"
    },
    {
      "anonymous": false,
      "inputs": [
        {
          "indexed": true,
          "internalType": "address",
          "name": "previousOwner",
          "type": "address"
        },
        {
          "indexed": true,
          "internalType": "address",
          "name": "newOwner",
          "type": "address"
        }
      ],
      "name": "OwnershipTransferred",
      "type": "event"
    },
    {
      "inputs": [],
      "name": "MINIMUM_PERIOD",
      "outputs": [
        {
          "internalType": "uint256",
          "name": "",
          "type": "uint256"
        }
      ],
      "stateMutability": "view",
      "type": "function"
    },
    {
      "inputs": [],
      "name": "autoCompound",
      "outputs": [],
      "stateMutability": "nonpayable",
      "type": "function"
    },
    {
      "inputs": [],
      "name": "lastExecuted",
      "outputs": [
        {
          "internalType": "uint256",
          "name": "",
          "type": "uint256"
        }
      ],
      "stateMutability": "view",
      "type": "function"
    },
    {
      "inputs": [],
      "name": "owner",
      "outputs": [
        {
          "internalType": "address",
          "name": "",
          "type": "address"
        }
      ],
      "stateMutability": "view",
      "type": "function"
    },
    {
      "inputs": [],
      "name": "renounceOwnership",
      "outputs": [],
      "stateMutability": "nonpayable",
      "type": "function"
    },
    {
      "inputs": [
        {
          "internalType": "address",
          "name": "newOwner",
          "type": "address"
        }
      ],
      "name": "transferOwnership",
      "outputs": [],
      "stateMutability": "nonpayable",
      "type": "function"
    }
  ],
  "transactionHash": "0x24757e304d2303ed439d7753311a2a77991af9ce9dd01df2ab656aa5be6417f5",
  "args": [
    "0x78a486306D15E7111cca541F2f1307a1cFCaF5C4"
  ],
  "numDeployments": 2,
  "solcInputHash": "9e65e83c249b1715b9679e816c39ce68",
  "bytecode": "0x608060405234801561001057600080fd5b5060405161053e38038061053e83398101604081905261002f916100ad565b6100383361005d565b600180546001600160a01b0319166001600160a01b03929092169190911790556100dd565b600080546001600160a01b038381166001600160a01b0319831681178455604051919092169283917f8be0079c531659141344cd1fd0a4f28419497f9722a3daafe3b4186f6b6457e09190a35050565b6000602082840312156100bf57600080fd5b81516001600160a01b03811681146100d657600080fd5b9392505050565b610452806100ec6000396000f3fe608060405234801561001057600080fd5b50600436106100725760003560e01c8063821c057611610050578063821c0576146100a65780638da5cb5b146100ae578063f2fde38b146100d657600080fd5b80631c15ff771461007757806351cd41e814610093578063715018a61461009c575b600080fd5b61008060025481565b6040519081526020015b60405180910390f35b61008061a8c081565b6100a46100e9565b005b6100a46100fd565b60005460405173ffffffffffffffffffffffffffffffffffffffff909116815260200161008a565b6100a46100e436600461037b565b610202565b6100f161029f565b6100fb6000610306565b565b61010561029f565b60025461011290426103b8565b61a8c0106101675760405162461bcd60e51b815260206004820152601e60248201527f6175746f436f6d706f756e643a2054696d65206e6f7420656c6170736564000060448201526064015b60405180910390fd5b42600255600154604080517fc00c9f7f000000000000000000000000000000000000000000000000000000008152815173ffffffffffffffffffffffffffffffffffffffff9093169263c00c9f7f9260048084019391929182900301816000875af11580156101da573d6000803e3d6000fd5b505050506040513d601f19601f820116820180604052508101906101fe91906103f8565b5050565b61020a61029f565b73ffffffffffffffffffffffffffffffffffffffff81166102935760405162461bcd60e51b815260206004820152602660248201527f4f776e61626c653a206e6577206f776e657220697320746865207a65726f206160448201527f6464726573730000000000000000000000000000000000000000000000000000606482015260840161015e565b61029c81610306565b50565b60005473ffffffffffffffffffffffffffffffffffffffff1633146100fb5760405162461bcd60e51b815260206004820181905260248201527f4f776e61626c653a2063616c6c6572206973206e6f7420746865206f776e6572604482015260640161015e565b6000805473ffffffffffffffffffffffffffffffffffffffff8381167fffffffffffffffffffffffff0000000000000000000000000000000000000000831681178455604051919092169283917f8be0079c531659141344cd1fd0a4f28419497f9722a3daafe3b4186f6b6457e09190a35050565b60006020828403121561038d57600080fd5b813573ffffffffffffffffffffffffffffffffffffffff811681146103b157600080fd5b9392505050565b818103818111156103f2577f4e487b7100000000000000000000000000000000000000000000000000000000600052601160045260246000fd5b92915050565b6000806040838503121561040b57600080fd5b50508051602090910151909290915056fea264697066735822122051674105c5664a82b75d45bd3d5149026429f746c299d651393704c6307bb8ce64736f6c63430008110033",
  "devdoc": {
    "kind": "dev",
    "methods": {
      "owner()": {
        "details": "Returns the address of the current owner."
      },
      "renounceOwnership()": {
        "details": "Leaves the contract without owner. It will not be possible to call `onlyOwner` functions anymore. Can only be called by the current owner. NOTE: Renouncing ownership will leave the contract without an owner, thereby removing any functionality that is only available to the owner."
      },
      "transferOwnership(address)": {
        "details": "Transfers ownership of the contract to a new account (`newOwner`). Can only be called by the current owner."
      }
    },
    "version": 1
  },
  "userdoc": {
    "kind": "user",
    "methods": {},
    "version": 1
  },
  "storageLayout": {
    "storage": [
      {
        "astId": 436,
        "contract": "contracts/AutoCompounder.sol:AutoCompounder",
        "label": "_owner",
        "offset": 0,
        "slot": "0",
        "type": "t_address"
      },
      {
        "astId": 3629,
        "contract": "contracts/AutoCompounder.sol:AutoCompounder",
        "label": "peronio",
        "offset": 0,
        "slot": "1",
        "type": "t_contract(IPeronio)4017"
      },
      {
        "astId": 3638,
        "contract": "contracts/AutoCompounder.sol:AutoCompounder",
        "label": "lastExecuted",
        "offset": 0,
        "slot": "2",
        "type": "t_uint256"
      }
    ],
    "types": {
      "t_address": {
        "encoding": "inplace",
        "label": "address",
        "numberOfBytes": "20"
      },
      "t_contract(IPeronio)4017": {
        "encoding": "inplace",
        "label": "contract IPeronio",
        "numberOfBytes": "20"
      },
      "t_uint256": {
        "encoding": "inplace",
        "label": "uint256",
        "numberOfBytes": "32"
      }
    }
  }
}