{
  "address": "0xBd52b2A76cA864F2D03365bDe418353e2A859ecA",
  "abi": [
    {
      "inputs": [
        {
          "internalType": "address",
          "name": "_peronio",
          "type": "address"
        }
      ],
      "stateMutability": "nonpayable",
      "type": "constructor"
    },
    {
      "anonymous": false,
      "inputs": [
        {
          "indexed": true,
          "internalType": "address",
          "name": "previousOwner",
          "type": "address"
        },
        {
          "indexed": true,
          "internalType": "address",
          "name": "newOwner",
          "type": "address"
        }
      ],
      "name": "OwnershipTransferred",
      "type": "event"
    },
    {
      "inputs": [],
      "name": "autoCompound",
      "outputs": [],
      "stateMutability": "nonpayable",
      "type": "function"
    },
    {
      "inputs": [],
      "name": "lastExecuted",
      "outputs": [
        {
          "internalType": "uint256",
          "name": "",
          "type": "uint256"
        }
      ],
      "stateMutability": "view",
      "type": "function"
    },
    {
      "inputs": [],
      "name": "owner",
      "outputs": [
        {
          "internalType": "address",
          "name": "",
          "type": "address"
        }
      ],
      "stateMutability": "view",
      "type": "function"
    },
    {
      "inputs": [],
      "name": "renounceOwnership",
      "outputs": [],
      "stateMutability": "nonpayable",
      "type": "function"
    },
    {
      "inputs": [
        {
          "internalType": "address",
          "name": "newOwner",
          "type": "address"
        }
      ],
      "name": "transferOwnership",
      "outputs": [],
      "stateMutability": "nonpayable",
      "type": "function"
    }
  ],
  "transactionHash": "0x49facec1c27301eb810fab5d2a8de7c8b5dfbc49dee9a600cc5db08a10aac0a6",
  "args": [
    "0xc2768beF7a6BB57F0FfA169a9ED4017c09696FF1"
  ],
  "numDeployments": 1,
  "solcInputHash": "64f365930fca704292896b4fa2e86b92",
  "bytecode": "0x608060405234801561001057600080fd5b5060405161052c38038061052c83398101604081905261002f916100ad565b6100383361005d565b600180546001600160a01b0319166001600160a01b03929092169190911790556100db565b600080546001600160a01b038381166001600160a01b0319831681178455604051919092169283917f8be0079c531659141344cd1fd0a4f28419497f9722a3daafe3b4186f6b6457e09190a35050565b6000602082840312156100be578081fd5b81516001600160a01b03811681146100d4578182fd5b9392505050565b610442806100ea6000396000f3fe608060405234801561001057600080fd5b50600436106100575760003560e01c80631c15ff771461005c578063715018a614610078578063821c0576146100825780638da5cb5b1461008a578063f2fde38b146100a5575b600080fd5b61006560025481565b6040519081526020015b60405180910390f35b6100806100b8565b005b6100806100f7565b6000546040516001600160a01b03909116815260200161006f565b6100806100b3366004610363565b61025f565b6000546001600160a01b031633146100eb5760405162461bcd60e51b81526004016100e2906103b4565b60405180910390fd5b6100f560006102fa565b565b6000546001600160a01b031633146101215760405162461bcd60e51b81526004016100e2906103b4565b61012961034a565b6101755760405162461bcd60e51b815260206004820152601e60248201527f6175746f436f6d706f756e643a2054696d65206e6f7420656c6170736564000060448201526064016100e2565b600160009054906101000a90046001600160a01b03166001600160a01b031663372500ab6040518163ffffffff1660e01b8152600401600060405180830381600087803b1580156101c557600080fd5b505af11580156101d9573d6000803e3d6000fd5b50506001546040805163c00c9f7f60e01b815281516001600160a01b03909316945063c00c9f7f9350600480820193918290030181600087803b15801561021f57600080fd5b505af1158015610233573d6000803e3d6000fd5b505050506040513d601f19601f820116820180604052508101906102579190610391565b505042600255565b6000546001600160a01b031633146102895760405162461bcd60e51b81526004016100e2906103b4565b6001600160a01b0381166102ee5760405162461bcd60e51b815260206004820152602660248201527f4f776e61626c653a206e6577206f776e657220697320746865207a65726f206160448201526564647265737360d01b60648201526084016100e2565b6102f7816102fa565b50565b600080546001600160a01b038381166001600160a01b0319831681178455604051919092169283917f8be0079c531659141344cd1fd0a4f28419497f9722a3daafe3b4186f6b6457e09190a35050565b600061a8c06002544261035d91906103e9565b11905090565b600060208284031215610374578081fd5b81356001600160a01b038116811461038a578182fd5b9392505050565b600080604083850312156103a3578081fd5b505080516020909101519092909150565b6020808252818101527f4f776e61626c653a2063616c6c6572206973206e6f7420746865206f776e6572604082015260600190565b60008282101561040757634e487b7160e01b81526011600452602481fd5b50039056fea2646970667358221220532fdbe66e4f05e85b1858a1bb08d1c7b34cec2b95ca5687c8fa45b110630eb664736f6c63430008040033",
  "devdoc": {
    "kind": "dev",
    "methods": {
      "owner()": {
        "details": "Returns the address of the current owner."
      },
      "renounceOwnership()": {
        "details": "Leaves the contract without owner. It will not be possible to call `onlyOwner` functions anymore. Can only be called by the current owner. NOTE: Renouncing ownership will leave the contract without an owner, thereby removing any functionality that is only available to the owner."
      },
      "transferOwnership(address)": {
        "details": "Transfers ownership of the contract to a new account (`newOwner`). Can only be called by the current owner."
      }
    },
    "version": 1
  },
  "userdoc": {
    "kind": "user",
    "methods": {},
    "version": 1
  },
  "storageLayout": {
    "storage": [
      {
        "astId": 387,
        "contract": "contracts/AutoCompounder.sol:AutoCompounder",
        "label": "_owner",
        "offset": 0,
        "slot": "0",
        "type": "t_address"
      },
      {
        "astId": 3680,
        "contract": "contracts/AutoCompounder.sol:AutoCompounder",
        "label": "peronio",
        "offset": 0,
        "slot": "1",
        "type": "t_contract(IPeronio)3931"
      },
      {
        "astId": 3694,
        "contract": "contracts/AutoCompounder.sol:AutoCompounder",
        "label": "lastExecuted",
        "offset": 0,
        "slot": "2",
        "type": "t_uint256"
      }
    ],
    "types": {
      "t_address": {
        "encoding": "inplace",
        "label": "address",
        "numberOfBytes": "20"
      },
      "t_contract(IPeronio)3931": {
        "encoding": "inplace",
        "label": "contract IPeronio",
        "numberOfBytes": "20"
      },
      "t_uint256": {
        "encoding": "inplace",
        "label": "uint256",
        "numberOfBytes": "32"
      }
    }
  }
}