{
  "address": "0xfe672A4b063b1895b2f6531a78a69c014614B2D8",
  "abi": [
    {
      "inputs": [
        {
          "internalType": "address",
          "name": "_peronioV1Address",
          "type": "address"
        },
        {
          "internalType": "address",
          "name": "_peronioV2Address",
          "type": "address"
        }
      ],
      "stateMutability": "nonpayable",
      "type": "constructor"
    },
    {
      "anonymous": false,
      "inputs": [
        {
          "indexed": false,
          "internalType": "uint256",
          "name": "timestamp",
          "type": "uint256"
        },
        {
          "indexed": false,
          "internalType": "uint256",
          "name": "oldPe",
          "type": "uint256"
        },
        {
          "indexed": false,
          "internalType": "uint256",
          "name": "usdc",
          "type": "uint256"
        },
        {
          "indexed": false,
          "internalType": "uint256",
          "name": "newPe",
          "type": "uint256"
        }
      ],
      "name": "Migrated",
      "type": "event"
    },
    {
      "inputs": [
        {
          "internalType": "uint256",
          "name": "amount",
          "type": "uint256"
        }
      ],
      "name": "migrate",
      "outputs": [
        {
          "internalType": "uint256",
          "name": "usdc",
          "type": "uint256"
        },
        {
          "internalType": "uint256",
          "name": "pe",
          "type": "uint256"
        }
      ],
      "stateMutability": "nonpayable",
      "type": "function"
    },
    {
      "inputs": [],
      "name": "peronioV1Address",
      "outputs": [
        {
          "internalType": "address",
          "name": "",
          "type": "address"
        }
      ],
      "stateMutability": "view",
      "type": "function"
    },
    {
      "inputs": [],
      "name": "peronioV2Address",
      "outputs": [
        {
          "internalType": "address",
          "name": "",
          "type": "address"
        }
      ],
      "stateMutability": "view",
      "type": "function"
    },
    {
      "inputs": [
        {
          "internalType": "uint256",
          "name": "amount",
          "type": "uint256"
        }
      ],
      "name": "quote",
      "outputs": [
        {
          "internalType": "uint256",
          "name": "usdc",
          "type": "uint256"
        },
        {
          "internalType": "uint256",
          "name": "pe",
          "type": "uint256"
        }
      ],
      "stateMutability": "view",
      "type": "function"
    },
    {
      "inputs": [
        {
          "internalType": "bytes4",
          "name": "interfaceId",
          "type": "bytes4"
        }
      ],
      "name": "supportsInterface",
      "outputs": [
        {
          "internalType": "bool",
          "name": "",
          "type": "bool"
        }
      ],
      "stateMutability": "view",
      "type": "function"
    }
  ],
  "transactionHash": "0xacb6c580f9c3d06526991bbfd90be14bca175364d006fb8f074863b203a35f34",
  "args": [
    "0xc2768beF7a6BB57F0FfA169a9ED4017c09696FF1",
    "0x78a486306D15E7111cca541F2f1307a1cFCaF5C4"
  ],
  "numDeployments": 2,
  "solcInputHash": "9e65e83c249b1715b9679e816c39ce68",
  "bytecode": "0x60c06040523480156200001157600080fd5b5060405162001bf438038062001bf483398101604081905262000034916200014b565b6001600160a01b03808316608081905290821660a0526040805163bb09d9b760e01b8152905163bb09d9b7916004808201926020929091908290030181865afa15801562000086573d6000803e3d6000fd5b505050506040513d601f19601f82011682018060405250810190620000ac919062000183565b60405163095ea7b360e01b81526001600160a01b0383811660048301526000196024830152919091169063095ea7b3906044016020604051808303816000875af1158015620000ff573d6000803e3d6000fd5b505050506040513d601f19601f82011682018060405250810190620001259190620001a8565b505050620001cc565b80516001600160a01b03811681146200014657600080fd5b919050565b600080604083850312156200015f57600080fd5b6200016a836200012e565b91506200017a602084016200012e565b90509250929050565b6000602082840312156200019657600080fd5b620001a1826200012e565b9392505050565b600060208284031215620001bb57600080fd5b81518015158114620001a157600080fd5b60805160a05161197e620002766000396000818160c10152818161023001528181610c8701528181610d0e01528181610d9e01528181610eab01528181610f8401528181611014015281816110d201526111430152600081816101000152818161020e015281816103ad0152818161046001528181610547015281816106a401528181610734015281816107f20152818161085d0152818161090b015261099b015261197e6000f3fe608060405234801561001057600080fd5b50600436106100675760003560e01c8063463698f311610050578063463698f3146100bc57806355c96dfc146100fb578063ed1bd76c1461012257600080fd5b806301ffc9a71461006c578063454b060814610094575b600080fd5b61007f61007a366004611615565b610135565b60405190151581526020015b60405180910390f35b6100a76100a2366004611657565b6101ce565b6040805192835260208301919091520161008b565b6100e37f000000000000000000000000000000000000000000000000000000000000000081565b6040516001600160a01b03909116815260200161008b565b6100e37f000000000000000000000000000000000000000000000000000000000000000081565b6100a7610130366004611657565b6103a2565b60007fffffffff0000000000000000000000000000000000000000000000000000000082167fbbaf246b0000000000000000000000000000000000000000000000000000000014806101c857507f01ffc9a7000000000000000000000000000000000000000000000000000000007fffffffff000000000000000000000000000000000000000000000000000000008316145b92915050565b6040517f23b872dd0000000000000000000000000000000000000000000000000000000081523360048201523060248201526044810182905260009081907f0000000000000000000000000000000000000000000000000000000000000000907f0000000000000000000000000000000000000000000000000000000000000000906001600160a01b038316906323b872dd906064016020604051808303816000875af1158015610283573d6000803e3d6000fd5b505050506040513d601f19601f820116820180604052508101906102a79190611670565b506102bc6001600160a01b03831630876111d6565b6040517f5204363e00000000000000000000000000000000000000000000000000000000815233600482015260248101829052600160448201529094506001600160a01b03821690635204363e906064016020604051808303816000875af115801561032c573d6000803e3d6000fd5b505050506040513d601f19601f820116820180604052508101906103509190611692565b6040805142815260208101889052908101869052606081018290529093507f3b8612735a70b2eb93900d517ea0486036481fe450a9c9f5681491d32ed06c669060800160405180910390a15050915091565b6000806000806000807f00000000000000000000000000000000000000000000000000000000000000006001600160a01b031663b282e0f96040518163ffffffff1660e01b81526004016040805180830381865afa158015610408573d6000803e3d6000fd5b505050506040513d601f19601f8201168201806040525081019061042c91906116ce565b91509150816dffffffffffffffffffffffffffff16816dffffffffffffffffffffffffffff168094508195505050505060007f00000000000000000000000000000000000000000000000000000000000000006001600160a01b031663d56cf10f6040518163ffffffff1660e01b8152600401602060405180830381865afa1580156104bc573d6000803e3d6000fd5b505050506040513d601f19601f820116820180604052508101906104e09190611718565b6001600160a01b03166318160ddd6040518163ffffffff1660e01b8152600401602060405180830381865afa15801561051d573d6000803e3d6000fd5b505050506040513d601f19601f820116820180604052508101906105419190611692565b905060007f00000000000000000000000000000000000000000000000000000000000000006001600160a01b031663d56cf10f6040518163ffffffff1660e01b8152600401602060405180830381865afa1580156105a3573d6000803e3d6000fd5b505050506040513d601f19601f820116820180604052508101906105c79190611718565b6001600160a01b0316637464fc3d6040518163ffffffff1660e01b8152600401602060405180830381865afa158015610604573d6000803e3d6000fd5b505050506040513d601f19601f820116820180604052508101906106289190611692565b90506000610635826113dc565b9050600061064b6106468688611749565b6113dc565b9050808210156106965781610661826005611749565b61066b9190611760565b6106758383611773565b61067f9086611749565b610689919061179c565b6106939085611760565b93505b50506000806000633b9aca007f00000000000000000000000000000000000000000000000000000000000000006001600160a01b031663491116176040518163ffffffff1660e01b8152600401602060405180830381865afa158015610700573d6000803e3d6000fd5b505050506040513d601f19601f820116820180604052508101906107249190611718565b6001600160a01b031663a23831067f00000000000000000000000000000000000000000000000000000000000000006001600160a01b031663d4f09d026040518163ffffffff1660e01b8152600401602060405180830381865afa158015610790573d6000803e3d6000fd5b505050506040513d601f19601f820116820180604052508101906107b49190611692565b6040517fffffffff0000000000000000000000000000000000000000000000000000000060e084901b16815260048101919091526001600160a01b037f0000000000000000000000000000000000000000000000000000000000000000166024820152604401602060405180830381865afa158015610837573d6000803e3d6000fd5b505050506040513d601f19601f8201168201806040525081019061085b9190611692565b7f00000000000000000000000000000000000000000000000000000000000000006001600160a01b03166318160ddd6040518163ffffffff1660e01b8152600401602060405180830381865afa1580156108b9573d6000803e3d6000fd5b505050506040513d601f19601f820116820180604052508101906108dd9190611692565b6108eb8d633b9aca00611749565b6108f5919061179c565b6108ff9190611749565b610909919061179c565b7f00000000000000000000000000000000000000000000000000000000000000006001600160a01b031663d56cf10f6040518163ffffffff1660e01b8152600401602060405180830381865afa158015610967573d6000803e3d6000fd5b505050506040513d601f19601f8201168201806040525081019061098b9190611718565b6001600160a01b03166370a082317f00000000000000000000000000000000000000000000000000000000000000006001600160a01b031663d56cf10f6040518163ffffffff1660e01b8152600401602060405180830381865afa1580156109f7573d6000803e3d6000fd5b505050506040513d601f19601f82011682018060405250810190610a1b9190611718565b6040517fffffffff0000000000000000000000000000000000000000000000000000000060e084901b1681526001600160a01b039091166004820152602401602060405180830381865afa158015610a77573d6000803e3d6000fd5b505050506040513d601f19601f82011682018060405250810190610a9b9190611692565b610aa59190611760565b9050610ab281888761154a565b9250610abf81878761154a565b9150610acb8186611773565b9450610ad990508287611773565b9550610ae58186611773565b9450610af18587611749565b92506000610b2c610b04836103e5611749565b88610b11896103e8611749565b610b1d866103e5611749565b610b279190611760565b61154a565b9050610b388184611760565b9850610b448188611773565b9650505050600080600080610b5e886107cd6107ca61154a565b610b92610646610b718d623cda20611749565b610b7e8c623cda29611749565b610b889190611760565b8b623cab6461154a565b610b9c9190611773565b90506000610bbc610baf836103e5611749565b89610b118c6103e8611749565b9050610bc8828a611760565b9850610bd48189611773565b97506000610be38c8a8c61154a565b9050818111610bf7578b9450925082610c17565b600089610c048c85611749565b610c0e919061179c565b95509193508391505b506000610c276106468a8c611749565b90506000610c34886113dc565b905081811015610c7f5780610c4a836005611749565b610c549190611760565b610c5e8284611773565b610c68908b611749565b610c72919061179c565b610c7c908a611760565b98505b5050505060007f00000000000000000000000000000000000000000000000000000000000000006001600160a01b031663313ce5676040518163ffffffff1660e01b8152600401602060405180830381865afa158015610ce3573d6000803e3d6000fd5b505050506040513d601f19601f82011682018060405250810190610d0791906117be565b90506000807f00000000000000000000000000000000000000000000000000000000000000006001600160a01b0316630c7c6f016040518163ffffffff1660e01b8152600401602060405180830381865afa158015610d6a573d6000803e3d6000fd5b505050506040513d601f19601f82011682018060405250810190610d8e9190611718565b6001600160a01b0316631526fe277f00000000000000000000000000000000000000000000000000000000000000006001600160a01b03166373956bc36040518163ffffffff1660e01b8152600401602060405180830381865afa158015610dfa573d6000803e3d6000fd5b505050506040513d601f19601f82011682018060405250810190610e1e9190611692565b6040518263ffffffff1660e01b8152600401610e3c91815260200190565b60a060405180830381865afa158015610e59573d6000803e3d6000fd5b505050506040513d601f19601f82011682018060405250810190610e7d91906117e1565b945050505050600483610e90919061183c565b610e9b90600a611939565b610ea99061ffff8316611749565b7f00000000000000000000000000000000000000000000000000000000000000006001600160a01b03166354cf2aeb6040518163ffffffff1660e01b8152600401602060405180830381865afa158015610f07573d6000803e3d6000fd5b505050506040513d601f19601f82011682018060405250810190610f2b9190611692565b610f359190611760565b915050610f7a610f59610f49868a8d61154a565b610f54868b8d61154a565b6115ff565b82610f6585600a611939565b610f6f9190611773565b610b2785600a611939565b94505050505060007f00000000000000000000000000000000000000000000000000000000000000006001600160a01b0316630c7c6f016040518163ffffffff1660e01b8152600401602060405180830381865afa158015610fe0573d6000803e3d6000fd5b505050506040513d601f19601f820116820180604052508101906110049190611718565b6001600160a01b031663a23831067f00000000000000000000000000000000000000000000000000000000000000006001600160a01b03166373956bc36040518163ffffffff1660e01b8152600401602060405180830381865afa158015611070573d6000803e3d6000fd5b505050506040513d601f19601f820116820180604052508101906110949190611692565b6040517fffffffff0000000000000000000000000000000000000000000000000000000060e084901b16815260048101919091526001600160a01b037f0000000000000000000000000000000000000000000000000000000000000000166024820152604401602060405180830381865afa158015611117573d6000803e3d6000fd5b505050506040513d601f19601f8201168201806040525081019061113b9190611692565b90506111c9827f00000000000000000000000000000000000000000000000000000000000000006001600160a01b03166318160ddd6040518163ffffffff1660e01b8152600401602060405180830381865afa15801561119f573d6000803e3d6000fd5b505050506040513d601f19601f820116820180604052508101906111c39190611692565b8361154a565b9650505050505050915091565b600080846001600160a01b031663bb09d9b76040518163ffffffff1660e01b8152600401602060405180830381865afa158015611217573d6000803e3d6000fd5b505050506040513d601f19601f8201168201806040525081019061123b9190611718565b6040517f70a082310000000000000000000000000000000000000000000000000000000081526001600160a01b0386811660048301529192506000918316906370a0823190602401602060405180830381865afa1580156112a0573d6000803e3d6000fd5b505050506040513d601f19601f820116820180604052508101906112c49190611692565b6040517ff3fef3a30000000000000000000000000000000000000000000000000000000081526001600160a01b038781166004830152602482018790529192509087169063f3fef3a390604401600060405180830381600087803b15801561132b57600080fd5b505af115801561133f573d6000803e3d6000fd5b50506040517f70a082310000000000000000000000000000000000000000000000000000000081526001600160a01b038881166004830152849350851691506370a0823190602401602060405180830381865afa1580156113a4573d6000803e3d6000fd5b505050506040513d601f19601f820116820180604052508101906113c89190611692565b6113d29190611773565b9695505050505050565b6000816000036113ee57506000919050565b600182608081901c156114065760409190911b9060801c5b604081901c1561141b5760209190911b9060401c5b602081901c156114305760109190911b9060201c5b601081901c156114455760089190911b9060101c5b600881901c1561145a5760049190911b9060081c5b600481901c1561146f5760029190911b9060041c5b600281901c1561148157600182901b91505b600182858161149257611492611786565b048301901c915060018285816114aa576114aa611786565b048301901c915060018285816114c2576114c2611786565b048301901c915060018285816114da576114da611786565b048301901c915060018285816114f2576114f2611786565b048301901c9150600182858161150a5761150a611786565b048301901c9150600182858161152257611522611786565b048301901c91506115428283868161153c5761153c611786565b046115ff565b949350505050565b60008080600019858709858702925082811083820303915050806000036115845783828161157a5761157a611786565b04925050506115f8565b80841161159057600080fd5b600084868809851960019081018716968790049682860381900495909211909303600082900391909104909201919091029190911760038402600290811880860282030280860282030280860282030280860282030280860282030280860290910302029150505b9392505050565b600081831061160e57816115f8565b5090919050565b60006020828403121561162757600080fd5b81357fffffffff00000000000000000000000000000000000000000000000000000000811681146115f857600080fd5b60006020828403121561166957600080fd5b5035919050565b60006020828403121561168257600080fd5b815180151581146115f857600080fd5b6000602082840312156116a457600080fd5b5051919050565b80516dffffffffffffffffffffffffffff811681146116c957600080fd5b919050565b600080604083850312156116e157600080fd5b6116ea836116ab565b91506116f8602084016116ab565b90509250929050565b80516001600160a01b03811681146116c957600080fd5b60006020828403121561172a57600080fd5b6115f882611701565b634e487b7160e01b600052601160045260246000fd5b80820281158282048414176101c8576101c8611733565b808201808211156101c8576101c8611733565b818103818111156101c8576101c8611733565b634e487b7160e01b600052601260045260246000fd5b6000826117b957634e487b7160e01b600052601260045260246000fd5b500490565b6000602082840312156117d057600080fd5b815160ff811681146115f857600080fd5b600080600080600060a086880312156117f957600080fd5b61180286611701565b9450602086015193506040860151925060608601519150608086015161ffff8116811461182e57600080fd5b809150509295509295909350565b60ff82811682821603908111156101c8576101c8611733565b600181815b8085111561189057816000190482111561187657611876611733565b8085161561188357918102915b93841c939080029061185a565b509250929050565b6000826118a7575060016101c8565b816118b4575060006101c8565b81600181146118ca57600281146118d4576118f0565b60019150506101c8565b60ff8411156118e5576118e5611733565b50506001821b6101c8565b5060208310610133831016604e8410600b8410161715611913575081810a6101c8565b61191d8383611855565b806000190482111561193157611931611733565b029392505050565b60006115f860ff84168361189856fea2646970667358221220c479af2724a87d248f9816768355a2ff0815d459dfb4d32ea4b7b7e87e2e119764736f6c63430008110033",
  "devdoc": {
    "kind": "dev",
    "methods": {
      "constructor": {
        "params": {
          "_peronioV1Address": "The address of the old PE contract",
          "_peronioV2Address": "The address of the new PE contract"
        }
      },
      "migrate(uint256)": {
        "custom:emit": "Migrated",
        "params": {
          "amount": "The number of PE tokens to withdraw from the old contract"
        },
        "returns": {
          "pe": " The number of PE tokens minted on the new contract",
          "usdc": " The number of USDC tokens withdrawn from the old contract"
        }
      },
      "quote(uint256)": {
        "params": {
          "amount": "The number of PE tokens to withdraw from the old contract"
        },
        "returns": {
          "pe": " The number of PE tokens to mint on the new contract",
          "usdc": " The number of USDC tokens to withdraw from the old contract"
        }
      },
      "supportsInterface(bytes4)": {
        "params": {
          "interfaceId": "Interface ID to check against"
        },
        "returns": {
          "_0": "Whether the provided interface ID is supported"
        }
      }
    },
    "stateVariables": {
      "peronioV1Address": {
        "return": "The address in question",
        "returns": {
          "_0": "The address in question"
        }
      },
      "peronioV2Address": {
        "return": "The address in question",
        "returns": {
          "_0": "The address in question"
        }
      }
    },
    "version": 1
  },
  "userdoc": {
    "events": {
      "Migrated(uint256,uint256,uint256,uint256)": {
        "notice": "Emitted upon migration"
      }
    },
    "kind": "user",
    "methods": {
      "constructor": {
        "notice": "Construct a new Peronio migrator"
      },
      "migrate(uint256)": {
        "notice": "Migrate the given number of PE tokens from the old contract to the new one"
      },
      "peronioV1Address()": {
        "notice": "Retrieve the old version's address"
      },
      "peronioV2Address()": {
        "notice": "Retrieve the new version's address"
      },
      "quote(uint256)": {
        "notice": "Retrieve the number of USDC tokens to withdraw from the old contract, and the number of OE tokens to mint on the new one"
      },
      "supportsInterface(bytes4)": {
        "notice": "Implementation of the IERC165 interface"
      }
    },
    "version": 1
  },
  "storageLayout": {
    "storage": [],
    "types": null
  }
}