{
  "address": "0x751D346B92f3dce8813E6b6E248a11C534F4BdEa",
  "abi": [
    {
      "inputs": [
        {
          "internalType": "address",
          "name": "_factory",
          "type": "address"
        },
        {
          "internalType": "address",
          "name": "_WETH",
          "type": "address"
        }
      ],
      "stateMutability": "nonpayable",
      "type": "constructor"
    },
    {
      "inputs": [],
      "name": "WETH",
      "outputs": [
        {
          "internalType": "address",
          "name": "",
          "type": "address"
        }
      ],
      "stateMutability": "view",
      "type": "function"
    },
    {
      "inputs": [
        {
          "internalType": "address",
          "name": "tokenA",
          "type": "address"
        },
        {
          "internalType": "address",
          "name": "tokenB",
          "type": "address"
        },
        {
          "internalType": "uint256",
          "name": "amountADesired",
          "type": "uint256"
        },
        {
          "internalType": "uint256",
          "name": "amountBDesired",
          "type": "uint256"
        },
        {
          "internalType": "uint256",
          "name": "amountAMin",
          "type": "uint256"
        },
        {
          "internalType": "uint256",
          "name": "amountBMin",
          "type": "uint256"
        },
        {
          "internalType": "address",
          "name": "to",
          "type": "address"
        },
        {
          "internalType": "uint256",
          "name": "deadline",
          "type": "uint256"
        }
      ],
      "name": "addLiquidity",
      "outputs": [
        {
          "internalType": "uint256",
          "name": "amountA",
          "type": "uint256"
        },
        {
          "internalType": "uint256",
          "name": "amountB",
          "type": "uint256"
        },
        {
          "internalType": "uint256",
          "name": "liquidity",
          "type": "uint256"
        }
      ],
      "stateMutability": "nonpayable",
      "type": "function"
    },
    {
      "inputs": [
        {
          "internalType": "address",
          "name": "token",
          "type": "address"
        },
        {
          "internalType": "uint256",
          "name": "amountTokenDesired",
          "type": "uint256"
        },
        {
          "internalType": "uint256",
          "name": "amountTokenMin",
          "type": "uint256"
        },
        {
          "internalType": "uint256",
          "name": "amountETHMin",
          "type": "uint256"
        },
        {
          "internalType": "address",
          "name": "to",
          "type": "address"
        },
        {
          "internalType": "uint256",
          "name": "deadline",
          "type": "uint256"
        }
      ],
      "name": "addLiquidityETH",
      "outputs": [
        {
          "internalType": "uint256",
          "name": "amountToken",
          "type": "uint256"
        },
        {
          "internalType": "uint256",
          "name": "amountETH",
          "type": "uint256"
        },
        {
          "internalType": "uint256",
          "name": "liquidity",
          "type": "uint256"
        }
      ],
      "stateMutability": "payable",
      "type": "function"
    },
    {
      "inputs": [],
      "name": "factory",
      "outputs": [
        {
          "internalType": "address",
          "name": "",
          "type": "address"
        }
      ],
      "stateMutability": "view",
      "type": "function"
    },
    {
      "inputs": [
        {
          "internalType": "uint256",
          "name": "amountOut",
          "type": "uint256"
        },
        {
          "internalType": "uint256",
          "name": "reserveIn",
          "type": "uint256"
        },
        {
          "internalType": "uint256",
          "name": "reserveOut",
          "type": "uint256"
        }
      ],
      "name": "getAmountIn",
      "outputs": [
        {
          "internalType": "uint256",
          "name": "amountIn",
          "type": "uint256"
        }
      ],
      "stateMutability": "pure",
      "type": "function"
    },
    {
      "inputs": [
        {
          "internalType": "uint256",
          "name": "amountIn",
          "type": "uint256"
        },
        {
          "internalType": "uint256",
          "name": "reserveIn",
          "type": "uint256"
        },
        {
          "internalType": "uint256",
          "name": "reserveOut",
          "type": "uint256"
        }
      ],
      "name": "getAmountOut",
      "outputs": [
        {
          "internalType": "uint256",
          "name": "amountOut",
          "type": "uint256"
        }
      ],
      "stateMutability": "pure",
      "type": "function"
    },
    {
      "inputs": [
        {
          "internalType": "uint256",
          "name": "amountOut",
          "type": "uint256"
        },
        {
          "internalType": "address[]",
          "name": "path",
          "type": "address[]"
        }
      ],
      "name": "getAmountsIn",
      "outputs": [
        {
          "internalType": "uint256[]",
          "name": "amounts",
          "type": "uint256[]"
        }
      ],
      "stateMutability": "view",
      "type": "function"
    },
    {
      "inputs": [
        {
          "internalType": "uint256",
          "name": "amountIn",
          "type": "uint256"
        },
        {
          "internalType": "address[]",
          "name": "path",
          "type": "address[]"
        }
      ],
      "name": "getAmountsOut",
      "outputs": [
        {
          "internalType": "uint256[]",
          "name": "amounts",
          "type": "uint256[]"
        }
      ],
      "stateMutability": "view",
      "type": "function"
    },
    {
      "inputs": [
        {
          "internalType": "uint256",
          "name": "amountA",
          "type": "uint256"
        },
        {
          "internalType": "uint256",
          "name": "reserveA",
          "type": "uint256"
        },
        {
          "internalType": "uint256",
          "name": "reserveB",
          "type": "uint256"
        }
      ],
      "name": "quote",
      "outputs": [
        {
          "internalType": "uint256",
          "name": "amountB",
          "type": "uint256"
        }
      ],
      "stateMutability": "pure",
      "type": "function"
    },
    {
      "inputs": [
        {
          "internalType": "address",
          "name": "tokenA",
          "type": "address"
        },
        {
          "internalType": "address",
          "name": "tokenB",
          "type": "address"
        },
        {
          "internalType": "uint256",
          "name": "liquidity",
          "type": "uint256"
        },
        {
          "internalType": "uint256",
          "name": "amountAMin",
          "type": "uint256"
        },
        {
          "internalType": "uint256",
          "name": "amountBMin",
          "type": "uint256"
        },
        {
          "internalType": "address",
          "name": "to",
          "type": "address"
        },
        {
          "internalType": "uint256",
          "name": "deadline",
          "type": "uint256"
        }
      ],
      "name": "removeLiquidity",
      "outputs": [
        {
          "internalType": "uint256",
          "name": "amountA",
          "type": "uint256"
        },
        {
          "internalType": "uint256",
          "name": "amountB",
          "type": "uint256"
        }
      ],
      "stateMutability": "nonpayable",
      "type": "function"
    },
    {
      "inputs": [
        {
          "internalType": "address",
          "name": "token",
          "type": "address"
        },
        {
          "internalType": "uint256",
          "name": "liquidity",
          "type": "uint256"
        },
        {
          "internalType": "uint256",
          "name": "amountTokenMin",
          "type": "uint256"
        },
        {
          "internalType": "uint256",
          "name": "amountETHMin",
          "type": "uint256"
        },
        {
          "internalType": "address",
          "name": "to",
          "type": "address"
        },
        {
          "internalType": "uint256",
          "name": "deadline",
          "type": "uint256"
        }
      ],
      "name": "removeLiquidityETH",
      "outputs": [
        {
          "internalType": "uint256",
          "name": "amountToken",
          "type": "uint256"
        },
        {
          "internalType": "uint256",
          "name": "amountETH",
          "type": "uint256"
        }
      ],
      "stateMutability": "nonpayable",
      "type": "function"
    },
    {
      "inputs": [
        {
          "internalType": "address",
          "name": "token",
          "type": "address"
        },
        {
          "internalType": "uint256",
          "name": "liquidity",
          "type": "uint256"
        },
        {
          "internalType": "uint256",
          "name": "amountTokenMin",
          "type": "uint256"
        },
        {
          "internalType": "uint256",
          "name": "amountETHMin",
          "type": "uint256"
        },
        {
          "internalType": "address",
          "name": "to",
          "type": "address"
        },
        {
          "internalType": "uint256",
          "name": "deadline",
          "type": "uint256"
        }
      ],
      "name": "removeLiquidityETHSupportingFeeOnTransferTokens",
      "outputs": [
        {
          "internalType": "uint256",
          "name": "amountETH",
          "type": "uint256"
        }
      ],
      "stateMutability": "nonpayable",
      "type": "function"
    },
    {
      "inputs": [
        {
          "internalType": "address",
          "name": "token",
          "type": "address"
        },
        {
          "internalType": "uint256",
          "name": "liquidity",
          "type": "uint256"
        },
        {
          "internalType": "uint256",
          "name": "amountTokenMin",
          "type": "uint256"
        },
        {
          "internalType": "uint256",
          "name": "amountETHMin",
          "type": "uint256"
        },
        {
          "internalType": "address",
          "name": "to",
          "type": "address"
        },
        {
          "internalType": "uint256",
          "name": "deadline",
          "type": "uint256"
        },
        {
          "internalType": "bool",
          "name": "approveMax",
          "type": "bool"
        },
        {
          "internalType": "uint8",
          "name": "v",
          "type": "uint8"
        },
        {
          "internalType": "bytes32",
          "name": "r",
          "type": "bytes32"
        },
        {
          "internalType": "bytes32",
          "name": "s",
          "type": "bytes32"
        }
      ],
      "name": "removeLiquidityETHWithPermit",
      "outputs": [
        {
          "internalType": "uint256",
          "name": "amountToken",
          "type": "uint256"
        },
        {
          "internalType": "uint256",
          "name": "amountETH",
          "type": "uint256"
        }
      ],
      "stateMutability": "nonpayable",
      "type": "function"
    },
    {
      "inputs": [
        {
          "internalType": "address",
          "name": "token",
          "type": "address"
        },
        {
          "internalType": "uint256",
          "name": "liquidity",
          "type": "uint256"
        },
        {
          "internalType": "uint256",
          "name": "amountTokenMin",
          "type": "uint256"
        },
        {
          "internalType": "uint256",
          "name": "amountETHMin",
          "type": "uint256"
        },
        {
          "internalType": "address",
          "name": "to",
          "type": "address"
        },
        {
          "internalType": "uint256",
          "name": "deadline",
          "type": "uint256"
        },
        {
          "internalType": "bool",
          "name": "approveMax",
          "type": "bool"
        },
        {
          "internalType": "uint8",
          "name": "v",
          "type": "uint8"
        },
        {
          "internalType": "bytes32",
          "name": "r",
          "type": "bytes32"
        },
        {
          "internalType": "bytes32",
          "name": "s",
          "type": "bytes32"
        }
      ],
      "name": "removeLiquidityETHWithPermitSupportingFeeOnTransferTokens",
      "outputs": [
        {
          "internalType": "uint256",
          "name": "amountETH",
          "type": "uint256"
        }
      ],
      "stateMutability": "nonpayable",
      "type": "function"
    },
    {
      "inputs": [
        {
          "internalType": "address",
          "name": "tokenA",
          "type": "address"
        },
        {
          "internalType": "address",
          "name": "tokenB",
          "type": "address"
        },
        {
          "internalType": "uint256",
          "name": "liquidity",
          "type": "uint256"
        },
        {
          "internalType": "uint256",
          "name": "amountAMin",
          "type": "uint256"
        },
        {
          "internalType": "uint256",
          "name": "amountBMin",
          "type": "uint256"
        },
        {
          "internalType": "address",
          "name": "to",
          "type": "address"
        },
        {
          "internalType": "uint256",
          "name": "deadline",
          "type": "uint256"
        },
        {
          "internalType": "bool",
          "name": "approveMax",
          "type": "bool"
        },
        {
          "internalType": "uint8",
          "name": "v",
          "type": "uint8"
        },
        {
          "internalType": "bytes32",
          "name": "r",
          "type": "bytes32"
        },
        {
          "internalType": "bytes32",
          "name": "s",
          "type": "bytes32"
        }
      ],
      "name": "removeLiquidityWithPermit",
      "outputs": [
        {
          "internalType": "uint256",
          "name": "amountA",
          "type": "uint256"
        },
        {
          "internalType": "uint256",
          "name": "amountB",
          "type": "uint256"
        }
      ],
      "stateMutability": "nonpayable",
      "type": "function"
    },
    {
      "inputs": [
        {
          "internalType": "uint256",
          "name": "amountOut",
          "type": "uint256"
        },
        {
          "internalType": "address[]",
          "name": "path",
          "type": "address[]"
        },
        {
          "internalType": "address",
          "name": "to",
          "type": "address"
        },
        {
          "internalType": "uint256",
          "name": "deadline",
          "type": "uint256"
        }
      ],
      "name": "swapETHForExactTokens",
      "outputs": [
        {
          "internalType": "uint256[]",
          "name": "amounts",
          "type": "uint256[]"
        }
      ],
      "stateMutability": "payable",
      "type": "function"
    },
    {
      "inputs": [
        {
          "internalType": "uint256",
          "name": "amountOutMin",
          "type": "uint256"
        },
        {
          "internalType": "address[]",
          "name": "path",
          "type": "address[]"
        },
        {
          "internalType": "address",
          "name": "to",
          "type": "address"
        },
        {
          "internalType": "uint256",
          "name": "deadline",
          "type": "uint256"
        }
      ],
      "name": "swapExactETHForTokens",
      "outputs": [
        {
          "internalType": "uint256[]",
          "name": "amounts",
          "type": "uint256[]"
        }
      ],
      "stateMutability": "payable",
      "type": "function"
    },
    {
      "inputs": [
        {
          "internalType": "uint256",
          "name": "amountIn",
          "type": "uint256"
        },
        {
          "internalType": "uint256",
          "name": "amountOutMin",
          "type": "uint256"
        },
        {
          "internalType": "address[]",
          "name": "path",
          "type": "address[]"
        },
        {
          "internalType": "address",
          "name": "to",
          "type": "address"
        },
        {
          "internalType": "uint256",
          "name": "deadline",
          "type": "uint256"
        }
      ],
      "name": "swapExactTokensForETH",
      "outputs": [
        {
          "internalType": "uint256[]",
          "name": "amounts",
          "type": "uint256[]"
        }
      ],
      "stateMutability": "nonpayable",
      "type": "function"
    },
    {
      "inputs": [
        {
          "internalType": "uint256",
          "name": "amountIn",
          "type": "uint256"
        },
        {
          "internalType": "uint256",
          "name": "amountOutMin",
          "type": "uint256"
        },
        {
          "internalType": "address[]",
          "name": "path",
          "type": "address[]"
        },
        {
          "internalType": "address",
          "name": "to",
          "type": "address"
        },
        {
          "internalType": "uint256",
          "name": "deadline",
          "type": "uint256"
        }
      ],
      "name": "swapExactTokensForTokens",
      "outputs": [
        {
          "internalType": "uint256[]",
          "name": "amounts",
          "type": "uint256[]"
        }
      ],
      "stateMutability": "nonpayable",
      "type": "function"
    },
    {
      "inputs": [
        {
          "internalType": "uint256",
          "name": "amountOut",
          "type": "uint256"
        },
        {
          "internalType": "uint256",
          "name": "amountInMax",
          "type": "uint256"
        },
        {
          "internalType": "address[]",
          "name": "path",
          "type": "address[]"
        },
        {
          "internalType": "address",
          "name": "to",
          "type": "address"
        },
        {
          "internalType": "uint256",
          "name": "deadline",
          "type": "uint256"
        }
      ],
      "name": "swapTokensForExactETH",
      "outputs": [
        {
          "internalType": "uint256[]",
          "name": "amounts",
          "type": "uint256[]"
        }
      ],
      "stateMutability": "nonpayable",
      "type": "function"
    },
    {
      "inputs": [
        {
          "internalType": "uint256",
          "name": "amountOut",
          "type": "uint256"
        },
        {
          "internalType": "uint256",
          "name": "amountInMax",
          "type": "uint256"
        },
        {
          "internalType": "address[]",
          "name": "path",
          "type": "address[]"
        },
        {
          "internalType": "address",
          "name": "to",
          "type": "address"
        },
        {
          "internalType": "uint256",
          "name": "deadline",
          "type": "uint256"
        }
      ],
      "name": "swapTokensForExactTokens",
      "outputs": [
        {
          "internalType": "uint256[]",
          "name": "amounts",
          "type": "uint256[]"
        }
      ],
      "stateMutability": "nonpayable",
      "type": "function"
    },
    {
      "stateMutability": "payable",
      "type": "receive"
    }
  ],
  "transactionHash": "0xefca2087bbbf2d4f6d17e3b5d4768207a600e8b8dba3eac0f317949a7e12ae8e",
  "args": [
    "0x84Ceb1675E369C703c76D023C58448EC135bBA10",
    "0x0d500b1d8e8ef31e21c99d1db9a6444d3adf1270"
  ],
  "numDeployments": 1,
  "solcInputHash": "d71dd3c711a0e7197dfdea662aea1b3b",
  "bytecode": "0x60c060405234801561001057600080fd5b5060405161398c38038061398c8339818101604052604081101561003357600080fd5b5080516020909101516001600160601b0319606092831b8116608052911b1660a05260805160601c60a05160601c61383c6101506000398061013e5280610b135280610b4e5280610c455280610e6352806111ed5280611353528061147f52806115c5528061164d52806118a6528061192152806119d55280611d1c5280611f865280611fdc528061201052806120845280612212528061235552806123dd525080610cd35280610daa5280610f295280610f62528061109d528061127b52806113315280611512528061167f52806117f65280611aa95280611ca15280611cca5280611cfa5280611e675280611fba52806122a5528061240f5280612c955280612cd852806131c752806132805280613333525061383c6000f3fe60806040526004361061012e5760003560e01c80638803dbee116100ab578063c45a01551161006f578063c45a01551461083f578063d06ca61f14610854578063ded9382a14610909578063e8e337001461097c578063f305d719146109fc578063fb3bdb4114610a4257610167565b80638803dbee14610692578063ad5c464814610728578063ad615dec14610759578063af2979eb1461078f578063baa2abde146107e257610167565b806338ed1739116100f257806338ed1739146104395780634a25d94a146104cf5780635b0d5984146105655780637ff36ab5146105d857806385f8c2591461065c57610167565b806302751cec1461016c578063054d50d4146101d857806318cbafe5146102205780631f00ca74146103065780632195995c146103bb57610167565b3661016757336001600160a01b037f0000000000000000000000000000000000000000000000000000000000000000161461016557fe5b005b600080fd5b34801561017857600080fd5b506101bf600480360360c081101561018f57600080fd5b506001600160a01b0381358116916020810135916040820135916060810135916080820135169060a00135610ac6565b6040805192835260208301919091528051918290030190f35b3480156101e457600080fd5b5061020e600480360360608110156101fb57600080fd5b5080359060208101359060400135610be0565b60408051918252519081900360200190f35b34801561022c57600080fd5b506102b6600480360360a081101561024357600080fd5b813591602081013591810190606081016040820135600160201b81111561026957600080fd5b82018360208201111561027b57600080fd5b803590602001918460208302840111600160201b8311171561029c57600080fd5b91935091506001600160a01b038135169060200135610bf5565b60408051602080825283518183015283519192839290830191858101910280838360005b838110156102f25781810151838201526020016102da565b505050509050019250505060405180910390f35b34801561031257600080fd5b506102b66004803603604081101561032957600080fd5b81359190810190604081016020820135600160201b81111561034a57600080fd5b82018360208201111561035c57600080fd5b803590602001918460208302840111600160201b8311171561037d57600080fd5b919080806020026020016040519081016040528093929190818152602001838360200280828437600092019190915250929550610f22945050505050565b3480156103c757600080fd5b506101bf60048036036101608110156103df57600080fd5b506001600160a01b038135811691602081013582169160408201359160608101359160808201359160a08101359091169060c08101359060e081013515159060ff6101008201351690610120810135906101400135610f58565b34801561044557600080fd5b506102b6600480360360a081101561045c57600080fd5b813591602081013591810190606081016040820135600160201b81111561048257600080fd5b82018360208201111561049457600080fd5b803590602001918460208302840111600160201b831117156104b557600080fd5b91935091506001600160a01b038135169060200135611052565b3480156104db57600080fd5b506102b6600480360360a08110156104f257600080fd5b813591602081013591810190606081016040820135600160201b81111561051857600080fd5b82018360208201111561052a57600080fd5b803590602001918460208302840111600160201b8311171561054b57600080fd5b91935091506001600160a01b03813516906020013561119d565b34801561057157600080fd5b5061020e600480360361014081101561058957600080fd5b506001600160a01b0381358116916020810135916040820135916060810135916080820135169060a08101359060c081013515159060ff60e08201351690610100810135906101200135611329565b6102b6600480360360808110156105ee57600080fd5b81359190810190604081016020820135600160201b81111561060f57600080fd5b82018360208201111561062157600080fd5b803590602001918460208302840111600160201b8311171561064257600080fd5b91935091506001600160a01b038135169060200135611437565b34801561066857600080fd5b5061020e6004803603606081101561067f57600080fd5b508035906020810135906040013561179e565b34801561069e57600080fd5b506102b6600480360360a08110156106b557600080fd5b813591602081013591810190606081016040820135600160201b8111156106db57600080fd5b8201836020820111156106ed57600080fd5b803590602001918460208302840111600160201b8311171561070e57600080fd5b91935091506001600160a01b0381351690602001356117ab565b34801561073457600080fd5b5061073d6118a4565b604080516001600160a01b039092168252519081900360200190f35b34801561076557600080fd5b5061020e6004803603606081101561077c57600080fd5b50803590602081013590604001356118c8565b34801561079b57600080fd5b5061020e600480360360c08110156107b257600080fd5b506001600160a01b0381358116916020810135916040820135916060810135916080820135169060a001356118d5565b3480156107ee57600080fd5b506101bf600480360360e081101561080557600080fd5b506001600160a01b038135811691602081013582169160408201359160608101359160808201359160a08101359091169060c00135611a5b565b34801561084b57600080fd5b5061073d611c9f565b34801561086057600080fd5b506102b66004803603604081101561087757600080fd5b81359190810190604081016020820135600160201b81111561089857600080fd5b8201836020820111156108aa57600080fd5b803590602001918460208302840111600160201b831117156108cb57600080fd5b919080806020026020016040519081016040528093929190818152602001838360200280828437600092019190915250929550611cc3945050505050565b34801561091557600080fd5b506101bf600480360361014081101561092d57600080fd5b506001600160a01b0381358116916020810135916040820135916060810135916080820135169060a08101359060c081013515159060ff60e08201351690610100810135906101200135611cf0565b34801561098857600080fd5b506109de60048036036101008110156109a057600080fd5b506001600160a01b038135811691602081013582169160408201359160608101359160808201359160a08101359160c0820135169060e00135611e04565b60408051938452602084019290925282820152519081900360600190f35b6109de600480360360c0811015610a1257600080fd5b506001600160a01b0381358116916020810135916040820135916060810135916080820135169060a00135611f37565b6102b660048036036080811015610a5857600080fd5b81359190810190604081016020820135600160201b811115610a7957600080fd5b820183602082011115610a8b57600080fd5b803590602001918460208302840111600160201b83111715610aac57600080fd5b91935091506001600160a01b0381351690602001356121ca565b6000808242811015610b0d576040805162461bcd60e51b815260206004820152601860248201526000805160206137e7833981519152604482015290519081900360640190fd5b610b3c897f00000000000000000000000000000000000000000000000000000000000000008a8a8a308a611a5b565b9093509150610b4c898685612543565b7f00000000000000000000000000000000000000000000000000000000000000006001600160a01b0316632e1a7d4d836040518263ffffffff1660e01b815260040180828152602001915050600060405180830381600087803b158015610bb257600080fd5b505af1158015610bc6573d6000803e3d6000fd5b50505050610bd485836126ad565b50965096945050505050565b6000610bed8484846127a5565b949350505050565b60608142811015610c3b576040805162461bcd60e51b815260206004820152601860248201526000805160206137e7833981519152604482015290519081900360640190fd5b6001600160a01b037f00000000000000000000000000000000000000000000000000000000000000001686866000198101818110610c7557fe5b905060200201356001600160a01b03166001600160a01b031614610cce576040805162461bcd60e51b815260206004820152601d6024820152600080516020613704833981519152604482015290519081900360640190fd5b610d2c7f00000000000000000000000000000000000000000000000000000000000000008988888080602002602001604051908101604052809392919081815260200183836020028082843760009201919091525061287d92505050565b91508682600184510381518110610d3f57fe5b60200260200101511015610d845760405162461bcd60e51b815260040180806020018281038252602b81526020018061376d602b913960400191505060405180910390fd5b610e2286866000818110610d9457fe5b905060200201356001600160a01b031633610e087f00000000000000000000000000000000000000000000000000000000000000008a8a6000818110610dd657fe5b905060200201356001600160a01b03168b8b6001818110610df357fe5b905060200201356001600160a01b03166129c9565b85600081518110610e1557fe5b6020026020010151612a89565b610e6182878780806020026020016040519081016040528093929190818152602001838360200280828437600092019190915250309250612be6915050565b7f00000000000000000000000000000000000000000000000000000000000000006001600160a01b0316632e1a7d4d83600185510381518110610ea057fe5b60200260200101516040518263ffffffff1660e01b815260040180828152602001915050600060405180830381600087803b158015610ede57600080fd5b505af1158015610ef2573d6000803e3d6000fd5b50505050610f178483600185510381518110610f0a57fe5b60200260200101516126ad565b509695505050505050565b6060610f4f7f00000000000000000000000000000000000000000000000000000000000000008484612e23565b90505b92915050565b6000806000610f887f00000000000000000000000000000000000000000000000000000000000000008f8f6129c9565b9050600087610f97578c610f9b565b6000195b6040805163d505accf60e01b815233600482015230602482015260448101839052606481018c905260ff8a16608482015260a4810189905260c4810188905290519192506001600160a01b0384169163d505accf9160e48082019260009290919082900301818387803b15801561101157600080fd5b505af1158015611025573d6000803e3d6000fd5b505050506110388f8f8f8f8f8f8f611a5b565b809450819550505050509b509b9950505050505050505050565b60608142811015611098576040805162461bcd60e51b815260206004820152601860248201526000805160206137e7833981519152604482015290519081900360640190fd5b6110f67f00000000000000000000000000000000000000000000000000000000000000008988888080602002602001604051908101604052809392919081815260200183836020028082843760009201919091525061287d92505050565b9150868260018451038151811061110957fe5b6020026020010151101561114e5760405162461bcd60e51b815260040180806020018281038252602b81526020018061376d602b913960400191505060405180910390fd5b61115e86866000818110610d9457fe5b610f1782878780806020026020016040519081016040528093929190818152602001838360200280828437600092019190915250899250612be6915050565b606081428110156111e3576040805162461bcd60e51b815260206004820152601860248201526000805160206137e7833981519152604482015290519081900360640190fd5b6001600160a01b037f0000000000000000000000000000000000000000000000000000000000000000168686600019810181811061121d57fe5b905060200201356001600160a01b03166001600160a01b031614611276576040805162461bcd60e51b815260206004820152601d6024820152600080516020613704833981519152604482015290519081900360640190fd5b6112d47f000000000000000000000000000000000000000000000000000000000000000089888880806020026020016040519081016040528093929190818152602001838360200280828437600092019190915250612e2392505050565b915086826000815181106112e457fe5b60200260200101511115610d845760405162461bcd60e51b81526004018080602001828103825260278152602001806136dd6027913960400191505060405180910390fd5b6000806113777f00000000000000000000000000000000000000000000000000000000000000008d7f00000000000000000000000000000000000000000000000000000000000000006129c9565b9050600086611386578b61138a565b6000195b6040805163d505accf60e01b815233600482015230602482015260448101839052606481018b905260ff8916608482015260a4810188905260c4810187905290519192506001600160a01b0384169163d505accf9160e48082019260009290919082900301818387803b15801561140057600080fd5b505af1158015611414573d6000803e3d6000fd5b505050506114268d8d8d8d8d8d6118d5565b9d9c50505050505050505050505050565b6060814281101561147d576040805162461bcd60e51b815260206004820152601860248201526000805160206137e7833981519152604482015290519081900360640190fd5b7f00000000000000000000000000000000000000000000000000000000000000006001600160a01b0316868660008181106114b457fe5b905060200201356001600160a01b03166001600160a01b03161461150d576040805162461bcd60e51b815260206004820152601d6024820152600080516020613704833981519152604482015290519081900360640190fd5b61156b7f00000000000000000000000000000000000000000000000000000000000000003488888080602002602001604051908101604052809392919081815260200183836020028082843760009201919091525061287d92505050565b9150868260018451038151811061157e57fe5b602002602001015110156115c35760405162461bcd60e51b815260040180806020018281038252602b81526020018061376d602b913960400191505060405180910390fd5b7f00000000000000000000000000000000000000000000000000000000000000006001600160a01b031663d0e30db0836000815181106115ff57fe5b60200260200101516040518263ffffffff1660e01b81526004016000604051808303818588803b15801561163257600080fd5b505af1158015611646573d6000803e3d6000fd5b50505050507f00000000000000000000000000000000000000000000000000000000000000006001600160a01b031663a9059cbb6116c87f0000000000000000000000000000000000000000000000000000000000000000898960008181106116ab57fe5b905060200201356001600160a01b03168a8a6001818110610df357fe5b846000815181106116d557fe5b60200260200101516040518363ffffffff1660e01b815260040180836001600160a01b0316815260200182815260200192505050602060405180830381600087803b15801561172357600080fd5b505af1158015611737573d6000803e3d6000fd5b505050506040513d602081101561174d57600080fd5b505161175557fe5b61179482878780806020026020016040519081016040528093929190818152602001838360200280828437600092019190915250899250612be6915050565b5095945050505050565b6000610bed848484612f5b565b606081428110156117f1576040805162461bcd60e51b815260206004820152601860248201526000805160206137e7833981519152604482015290519081900360640190fd5b61184f7f000000000000000000000000000000000000000000000000000000000000000089888880806020026020016040519081016040528093929190818152602001838360200280828437600092019190915250612e2392505050565b9150868260008151811061185f57fe5b6020026020010151111561114e5760405162461bcd60e51b81526004018080602001828103825260278152602001806136dd6027913960400191505060405180910390fd5b7f000000000000000000000000000000000000000000000000000000000000000081565b6000610bed848484613033565b6000814281101561191b576040805162461bcd60e51b815260206004820152601860248201526000805160206137e7833981519152604482015290519081900360640190fd5b61194a887f00000000000000000000000000000000000000000000000000000000000000008989893089611a5b565b9050809250506119d388858a6001600160a01b03166370a08231306040518263ffffffff1660e01b815260040180826001600160a01b0316815260200191505060206040518083038186803b1580156119a257600080fd5b505afa1580156119b6573d6000803e3d6000fd5b505050506040513d60208110156119cc57600080fd5b5051612543565b7f00000000000000000000000000000000000000000000000000000000000000006001600160a01b0316632e1a7d4d836040518263ffffffff1660e01b815260040180828152602001915050600060405180830381600087803b158015611a3957600080fd5b505af1158015611a4d573d6000803e3d6000fd5b50505050610f1784836126ad565b6000808242811015611aa2576040805162461bcd60e51b815260206004820152601860248201526000805160206137e7833981519152604482015290519081900360640190fd5b6000611acf7f00000000000000000000000000000000000000000000000000000000000000008c8c6129c9565b604080516323b872dd60e01b81523360048201526001600160a01b03831660248201819052604482018d9052915192935090916323b872dd916064808201926020929091908290030181600087803b158015611b2a57600080fd5b505af1158015611b3e573d6000803e3d6000fd5b505050506040513d6020811015611b5457600080fd5b50506040805163226bf2d160e21b81526001600160a01b03888116600483015282516000938493928616926389afcb44926024808301939282900301818787803b158015611ba157600080fd5b505af1158015611bb5573d6000803e3d6000fd5b505050506040513d6040811015611bcb57600080fd5b50805160209091015190925090506000611be58e8e6130d9565b509050806001600160a01b03168e6001600160a01b031614611c08578183611c0b565b82825b90975095508a871015611c4f5760405162461bcd60e51b81526004018080602001828103825260268152602001806137246026913960400191505060405180910390fd5b89861015611c8e5760405162461bcd60e51b815260040180806020018281038252602681526020018061366a6026913960400191505060405180910390fd5b505050505097509795505050505050565b7f000000000000000000000000000000000000000000000000000000000000000081565b6060610f4f7f0000000000000000000000000000000000000000000000000000000000000000848461287d565b6000806000611d407f00000000000000000000000000000000000000000000000000000000000000008e7f00000000000000000000000000000000000000000000000000000000000000006129c9565b9050600087611d4f578c611d53565b6000195b6040805163d505accf60e01b815233600482015230602482015260448101839052606481018c905260ff8a16608482015260a4810189905260c4810188905290519192506001600160a01b0384169163d505accf9160e48082019260009290919082900301818387803b158015611dc957600080fd5b505af1158015611ddd573d6000803e3d6000fd5b50505050611def8e8e8e8e8e8e610ac6565b909f909e509c50505050505050505050505050565b60008060008342811015611e4d576040805162461bcd60e51b815260206004820152601860248201526000805160206137e7833981519152604482015290519081900360640190fd5b611e5b8c8c8c8c8c8c6131b7565b90945092506000611e8d7f00000000000000000000000000000000000000000000000000000000000000008e8e6129c9565b9050611e9b8d338388612a89565b611ea78c338387612a89565b806001600160a01b0316636a627842886040518263ffffffff1660e01b815260040180826001600160a01b03168152602001915050602060405180830381600087803b158015611ef657600080fd5b505af1158015611f0a573d6000803e3d6000fd5b505050506040513d6020811015611f2057600080fd5b5051949d939c50939a509198505050505050505050565b60008060008342811015611f80576040805162461bcd60e51b815260206004820152601860248201526000805160206137e7833981519152604482015290519081900360640190fd5b611fae8a7f00000000000000000000000000000000000000000000000000000000000000008b348c8c6131b7565b909450925060006120007f00000000000000000000000000000000000000000000000000000000000000008c7f00000000000000000000000000000000000000000000000000000000000000006129c9565b905061200e8b338388612a89565b7f00000000000000000000000000000000000000000000000000000000000000006001600160a01b031663d0e30db0856040518263ffffffff1660e01b81526004016000604051808303818588803b15801561206957600080fd5b505af115801561207d573d6000803e3d6000fd5b50505050507f00000000000000000000000000000000000000000000000000000000000000006001600160a01b031663a9059cbb82866040518363ffffffff1660e01b815260040180836001600160a01b0316815260200182815260200192505050602060405180830381600087803b1580156120f957600080fd5b505af115801561210d573d6000803e3d6000fd5b505050506040513d602081101561212357600080fd5b505161212b57fe5b806001600160a01b0316636a627842886040518263ffffffff1660e01b815260040180826001600160a01b03168152602001915050602060405180830381600087803b15801561217a57600080fd5b505af115801561218e573d6000803e3d6000fd5b505050506040513d60208110156121a457600080fd5b50519250348410156121bc576121bc338534036126ad565b505096509650969350505050565b60608142811015612210576040805162461bcd60e51b815260206004820152601860248201526000805160206137e7833981519152604482015290519081900360640190fd5b7f00000000000000000000000000000000000000000000000000000000000000006001600160a01b03168686600081811061224757fe5b905060200201356001600160a01b03166001600160a01b0316146122a0576040805162461bcd60e51b815260206004820152601d6024820152600080516020613704833981519152604482015290519081900360640190fd5b6122fe7f000000000000000000000000000000000000000000000000000000000000000088888880806020026020016040519081016040528093929190818152602001838360200280828437600092019190915250612e2392505050565b9150348260008151811061230e57fe5b602002602001015111156123535760405162461bcd60e51b81526004018080602001828103825260278152602001806136dd6027913960400191505060405180910390fd5b7f00000000000000000000000000000000000000000000000000000000000000006001600160a01b031663d0e30db08360008151811061238f57fe5b60200260200101516040518263ffffffff1660e01b81526004016000604051808303818588803b1580156123c257600080fd5b505af11580156123d6573d6000803e3d6000fd5b50505050507f00000000000000000000000000000000000000000000000000000000000000006001600160a01b031663a9059cbb61243b7f0000000000000000000000000000000000000000000000000000000000000000898960008181106116ab57fe5b8460008151811061244857fe5b60200260200101516040518363ffffffff1660e01b815260040180836001600160a01b0316815260200182815260200192505050602060405180830381600087803b15801561249657600080fd5b505af11580156124aa573d6000803e3d6000fd5b505050506040513d60208110156124c057600080fd5b50516124c857fe5b61250782878780806020026020016040519081016040528093929190818152602001838360200280828437600092019190915250899250612be6915050565b8160008151811061251457fe5b602002602001015134111561179457611794338360008151811061253457fe5b602002602001015134036126ad565b604080516001600160a01b038481166024830152604480830185905283518084039091018152606490920183526020820180516001600160e01b031663a9059cbb60e01b178152925182516000946060949389169392918291908083835b602083106125c05780518252601f1990920191602091820191016125a1565b6001836020036101000a0380198251168184511680821785525050505050509050019150506000604051808303816000865af19150503d8060008114612622576040519150601f19603f3d011682016040523d82523d6000602084013e612627565b606091505b5091509150818015612655575080511580612655575080806020019051602081101561265257600080fd5b50515b6126a6576040805162461bcd60e51b815260206004820152601f60248201527f5472616e7366657248656c7065723a205452414e534645525f4641494c454400604482015290519081900360640190fd5b5050505050565b604080516000808252602082019092526001600160a01b0384169083906040518082805190602001908083835b602083106126f95780518252601f1990920191602091820191016126da565b6001836020036101000a03801982511681845116808217855250505050505090500191505060006040518083038185875af1925050503d806000811461275b576040519150601f19603f3d011682016040523d82523d6000602084013e612760565b606091505b50509050806127a05760405162461bcd60e51b815260040180806020018281038252602381526020018061374a6023913960400191505060405180910390fd5b505050565b60008084116127e55760405162461bcd60e51b815260040180806020018281038252602b8152602001806137bc602b913960400191505060405180910390fd5b6000831180156127f55750600082115b6128305760405162461bcd60e51b81526004018080602001828103825260288152602001806136906028913960400191505060405180910390fd5b600061283e856103e5613448565b9050600061284c8285613448565b9050600061286683612860886103e8613448565b906134ab565b905080828161287157fe5b04979650505050505050565b60606002825110156128d6576040805162461bcd60e51b815260206004820152601e60248201527f556e697377617056324c6962726172793a20494e56414c49445f504154480000604482015290519081900360640190fd5b815167ffffffffffffffff811180156128ee57600080fd5b50604051908082528060200260200182016040528015612918578160200160208202803683370190505b509050828160008151811061292957fe5b60200260200101818152505060005b60018351038110156129c15760008061297b8786858151811061295757fe5b602002602001015187866001018151811061296e57fe5b60200260200101516134fa565b9150915061299d84848151811061298e57fe5b602002602001015183836127a5565b8484600101815181106129ac57fe5b60209081029190910101525050600101612938565b509392505050565b60008060006129d885856130d9565b604080516bffffffffffffffffffffffff19606094851b811660208084019190915293851b81166034830152825160288184030181526048830184528051908501206001600160f81b031960688401529a90941b9093166069840152607d8301989098527f1ca4cf5a40745ee86969727917c8aeb8c6bca71e9495830ee9f911ee7547d604609d808401919091528851808403909101815260bd909201909752805196019590952095945050505050565b604080516001600160a01b0385811660248301528481166044830152606480830185905283518084039091018152608490920183526020820180516001600160e01b03166323b872dd60e01b17815292518251600094606094938a169392918291908083835b60208310612b0e5780518252601f199092019160209182019101612aef565b6001836020036101000a0380198251168184511680821785525050505050509050019150506000604051808303816000865af19150503d8060008114612b70576040519150601f19603f3d011682016040523d82523d6000602084013e612b75565b606091505b5091509150818015612ba3575080511580612ba35750808060200190516020811015612ba057600080fd5b50515b612bde5760405162461bcd60e51b81526004018080602001828103825260248152602001806137986024913960400191505060405180910390fd5b505050505050565b60005b6001835103811015612e1d57600080848381518110612c0457fe5b6020026020010151858460010181518110612c1b57fe5b6020026020010151915091506000612c3383836130d9565b5090506000878560010181518110612c4757fe5b60200260200101519050600080836001600160a01b0316866001600160a01b031614612c7557826000612c79565b6000835b91509150600060028a51038810612c905788612cd1565b612cd17f0000000000000000000000000000000000000000000000000000000000000000878c8b60020181518110612cc457fe5b60200260200101516129c9565b9050612cfe7f000000000000000000000000000000000000000000000000000000000000000088886129c9565b6001600160a01b031663022c0d9f84848460006040519080825280601f01601f191660200182016040528015612d3b576020820181803683370190505b506040518563ffffffff1660e01b815260040180858152602001848152602001836001600160a01b0316815260200180602001828103825283818151815260200191508051906020019080838360005b83811015612da3578181015183820152602001612d8b565b50505050905090810190601f168015612dd05780820380516001836020036101000a031916815260200191505b5095505050505050600060405180830381600087803b158015612df257600080fd5b505af1158015612e06573d6000803e3d6000fd5b505060019099019850612be9975050505050505050565b50505050565b6060600282511015612e7c576040805162461bcd60e51b815260206004820152601e60248201527f556e697377617056324c6962726172793a20494e56414c49445f504154480000604482015290519081900360640190fd5b815167ffffffffffffffff81118015612e9457600080fd5b50604051908082528060200260200182016040528015612ebe578160200160208202803683370190505b5090508281600183510381518110612ed257fe5b60209081029190910101528151600019015b80156129c157600080612f1487866001860381518110612f0057fe5b602002602001015187868151811061296e57fe5b91509150612f36848481518110612f2757fe5b60200260200101518383612f5b565b846001850381518110612f4557fe5b6020908102919091010152505060001901612ee4565b6000808411612f9b5760405162461bcd60e51b815260040180806020018281038252602c815260200180613619602c913960400191505060405180910390fd5b600083118015612fab5750600082115b612fe65760405162461bcd60e51b81526004018080602001828103825260288152602001806136906028913960400191505060405180910390fd5b6000612ffe6103e8612ff88688613448565b90613448565b905060006130126103e5612ff886896135c8565b9050613029600182848161302257fe5b04906134ab565b9695505050505050565b60008084116130735760405162461bcd60e51b81526004018080602001828103825260258152602001806136b86025913960400191505060405180910390fd5b6000831180156130835750600082115b6130be5760405162461bcd60e51b81526004018080602001828103825260288152602001806136906028913960400191505060405180910390fd5b826130c98584613448565b816130d057fe5b04949350505050565b600080826001600160a01b0316846001600160a01b0316141561312d5760405162461bcd60e51b81526004018080602001828103825260258152602001806136456025913960400191505060405180910390fd5b826001600160a01b0316846001600160a01b03161061314d578284613150565b83835b90925090506001600160a01b0382166131b0576040805162461bcd60e51b815260206004820152601e60248201527f556e697377617056324c6962726172793a205a45524f5f414444524553530000604482015290519081900360640190fd5b9250929050565b60008060006001600160a01b03167f00000000000000000000000000000000000000000000000000000000000000006001600160a01b031663e6a439058a8a6040518363ffffffff1660e01b815260040180836001600160a01b03168152602001826001600160a01b031681526020019250505060206040518083038186803b15801561324357600080fd5b505afa158015613257573d6000803e3d6000fd5b505050506040513d602081101561326d57600080fd5b50516001600160a01b0316141561332b577f00000000000000000000000000000000000000000000000000000000000000006001600160a01b031663c9c6539689896040518363ffffffff1660e01b815260040180836001600160a01b03168152602001826001600160a01b0316815260200192505050602060405180830381600087803b1580156132fe57600080fd5b505af1158015613312573d6000803e3d6000fd5b505050506040513d602081101561332857600080fd5b50505b6000806133597f00000000000000000000000000000000000000000000000000000000000000008b8b6134fa565b9150915081600014801561336b575080155b1561337b5787935086925061343b565b6000613388898484613033565b90508781116133db57858110156133d05760405162461bcd60e51b815260040180806020018281038252602681526020018061366a6026913960400191505060405180910390fd5b889450925082613439565b60006133e8898486613033565b9050898111156133f457fe5b878110156134335760405162461bcd60e51b81526004018080602001828103825260268152602001806137246026913960400191505060405180910390fd5b94508793505b505b5050965096945050505050565b60008115806134635750508082028282828161346057fe5b04145b610f52576040805162461bcd60e51b815260206004820152601460248201527364732d6d6174682d6d756c2d6f766572666c6f7760601b604482015290519081900360640190fd5b80820182811015610f52576040805162461bcd60e51b815260206004820152601460248201527364732d6d6174682d6164642d6f766572666c6f7760601b604482015290519081900360640190fd5b600080600061350985856130d9565b50905060008061351a8888886129c9565b6001600160a01b0316630902f1ac6040518163ffffffff1660e01b815260040160606040518083038186803b15801561355257600080fd5b505afa158015613566573d6000803e3d6000fd5b505050506040513d606081101561357c57600080fd5b5080516020909101516dffffffffffffffffffffffffffff91821693501690506001600160a01b03878116908416146135b65780826135b9565b81815b90999098509650505050505050565b80820382811115610f52576040805162461bcd60e51b815260206004820152601560248201527464732d6d6174682d7375622d756e646572666c6f7760581b604482015290519081900360640190fdfe556e697377617056324c6962726172793a20494e53554646494349454e545f4f55545055545f414d4f554e54556e697377617056324c6962726172793a204944454e544943414c5f414444524553534553556e69737761705632526f757465723a20494e53554646494349454e545f425f414d4f554e54556e697377617056324c6962726172793a20494e53554646494349454e545f4c4951554944495459556e697377617056324c6962726172793a20494e53554646494349454e545f414d4f554e54556e69737761705632526f757465723a204558434553534956455f494e5055545f414d4f554e54556e69737761705632526f757465723a20494e56414c49445f50415448000000556e69737761705632526f757465723a20494e53554646494349454e545f415f414d4f554e545472616e7366657248656c7065723a204554485f5452414e534645525f4641494c4544556e69737761705632526f757465723a20494e53554646494349454e545f4f55545055545f414d4f554e545472616e7366657248656c7065723a205452414e534645525f46524f4d5f4641494c4544556e697377617056324c6962726172793a20494e53554646494349454e545f494e5055545f414d4f554e54556e69737761705632526f757465723a20455850495245440000000000000000a2646970667358221220b4a53c59ef9e9f18cdbf095799aa42408f84c89a32652c44ef5f5b147ddbd7b964736f6c634300060c0033",
  "devdoc": {
    "kind": "dev",
    "methods": {},
    "version": 1
  },
  "userdoc": {
    "kind": "user",
    "methods": {},
    "version": 1
  },
  "storageLayout": {
    "storage": [],
    "types": null
  }
}